{"contracts/SupplyChainChain.sol":{"SupplyChainChain":{"abi":[{"inputs":[{"internalType":"address","name":"_issuer","type":"address"},{"internalType":"address","name":"_aegis","type":"address"}],"stateMutability":"nonpayable","type":"constructor"},{"anonymous":false,"inputs":[{"indexed":true,"internalType":"bytes32","name":"contractId","type":"bytes32"},{"indexed":false,"internalType":"bytes32","name":"finalHash","type":"bytes32"}],"name":"ContractClosed","type":"event"},{"anonymous":false,"inputs":[{"indexed":true,"internalType":"bytes32","name":"contractId","type":"bytes32"},{"indexed":true,"internalType":"address","name":"issuer","type":"address"},{"indexed":false,"internalType":"bytes32","name":"metadataHash","type":"bytes32"}],"name":"ContractOpened","type":"event"},{"anonymous":false,"inputs":[{"indexed":true,"internalType":"bytes32","name":"contractId","type":"bytes32"},{"indexed":false,"internalType":"string","name":"category","type":"string"},{"indexed":false,"internalType":"uint256","name":"tokenId","type":"uint256"},{"indexed":false,"internalType":"bytes32","name":"payloadHash","type":"bytes32"}],"name":"StepCompleted","type":"event"},{"inputs":[],"name":"aegis","outputs":[{"internalType":"address","name":"","type":"address"}],"stateMutability":"view","type":"function"},{"inputs":[{"internalType":"bytes32","name":"contractId","type":"bytes32"},{"internalType":"bytes32","name":"finalHash","type":"bytes32"}],"name":"closeContract","outputs":[],"stateMutability":"nonpayable","type":"function"},{"inputs":[{"internalType":"bytes32","name":"contractId","type":"bytes32"},{"internalType":"string","name":"category","type":"string"},{"internalType":"uint256","name":"tokenId","type":"uint256"},{"internalType":"bytes32","name":"payloadHash","type":"bytes32"}],"name":"completeStep","outputs":[],"stateMutability":"nonpayable","type":"function"},{"inputs":[{"internalType":"bytes32","name":"","type":"bytes32"}],"name":"completedSteps","outputs":[{"internalType":"bool","name":"forge","type":"bool"},{"internalType":"bool","name":"atlas","type":"bool"},{"internalType":"bool","name":"ledger","type":"bool"},{"internalType":"bool","name":"aegis","type":"bool"},{"internalType":"bool","name":"closed","type":"bool"}],"stateMutability":"view","type":"function"},{"inputs":[],"name":"issuer","outputs":[{"internalType":"address","name":"","type":"address"}],"stateMutability":"view","type":"function"},{"inputs":[{"internalType":"bytes32","name":"contractId","type":"bytes32"},{"internalType":"bytes32","name":"metadataHash","type":"bytes32"},{"components":[{"internalType":"bool","name":"forge","type":"bool"},{"internalType":"bool","name":"atlas","type":"bool"},{"internalType":"bool","name":"ledger","type":"bool"},{"internalType":"bool","name":"aegis","type":"bool"}],"internalType":"struct SupplyChainChain.ChainReq","name":"req","type":"tuple"}],"name":"openContract","outputs":[],"stateMutability":"nonpayable","type":"function"},{"inputs":[{"internalType":"bytes32","name":"","type":"bytes32"}],"name":"opened","outputs":[{"internalType":"bool","name":"","type":"bool"}],"stateMutability":"view","type":"function"},{"inputs":[],"name":"paused","outputs":[{"internalType":"bool","name":"","type":"bool"}],"stateMutability":"view","type":"function"},{"inputs":[{"internalType":"bytes32","name":"","type":"bytes32"}],"name":"requiredSteps","outputs":[{"internalType":"bool","name":"forge","type":"bool"},{"internalType":"bool","name":"atlas","type":"bool"},{"internalType":"bool","name":"ledger","type":"bool"},{"internalType":"bool","name":"aegis","type":"bool"}],"stateMutability":"view","type":"function"},{"inputs":[{"internalType":"bool","name":"on","type":"bool"}],"name":"setPaused","outputs":[],"stateMutability":"nonpayable","type":"function"}],"evm":{"bytecode":{"linkReferences":{},"object":"608060405234801561001057600080fd5b50604051610cf3380380610cf383398101604081905261002f9161007c565b600080546001600160a01b039384166001600160a01b031991821617909155600180549290931691161790556100af565b80516001600160a01b038116811461007757600080fd5b919050565b6000806040838503121561008f57600080fd5b61009883610060565b91506100a660208401610060565b90509250929050565b610c35806100be6000396000f3fe608060405234801561001057600080fd5b506004361061009e5760003560e01c80639efafd95116100665780639efafd9514610188578063a10d1dcd146101ab578063b166b20e146101be578063e4788a12146101d1578063f0dc3a23146101e457600080fd5b806316c38b3c146100a35780631d143848146100b8578063524a2ed5146100e85780635c975abb1461015157806383de800114610175575b600080fd5b6100b66100b136600461098f565b610261565b005b6000546100cb906001600160a01b031681565b6040516001600160a01b0390911681526020015b60405180910390f35b6101276100f63660046109b3565b60026020526000908152604090205460ff808216916101008104821691620100008204811691630100000090041684565b604080519415158552921515602085015290151591830191909152151560608201526080016100df565b60015461016590600160a01b900460ff1681565b60405190151581526020016100df565b6100b66101833660046109cc565b6102cb565b6101656101963660046109b3565b60046020526000908152604090205460ff1681565b6001546100cb906001600160a01b031681565b6100b66101cc3660046109ee565b610608565b6100b66101df366004610a79565b610862565b61022f6101f23660046109b3565b60036020526000908152604090205460ff808216916101008104821691620100008204811691630100000081048216916401000000009091041685565b60408051951515865293151560208601529115159284019290925290151560608301521515608082015260a0016100df565b6001546001600160a01b031633146102ad5760405162461bcd60e51b815260206004820152600a6024820152694f4e4c595f414547495360b01b60448201526064015b60405180910390fd5b60018054911515600160a01b0260ff60a01b19909216919091179055565b6000546001600160a01b031633146102f55760405162461bcd60e51b81526004016102a490610aba565b600154600160a01b900460ff161561031f5760405162461bcd60e51b81526004016102a490610adf565b60008281526004602052604090205460ff166103685760405162461bcd60e51b81526020600482015260086024820152672727aa2fa7a822a760c11b60448201526064016102a4565b600082815260036020526040902054640100000000900460ff16156103c05760405162461bcd60e51b815260206004820152600e60248201526d1053149150511657d0d313d4d15160921b60448201526064016102a4565b6000828152600260209081526040808320815160808082018452915460ff808216151583526101008083048216151584880152620100008084048316151585880152630100000093849004831615156060808701919091528b8a526003895298879020875160a08101895290548085161515825292830484161515988101989098528104821615159587019590955290840481161515958501959095526401000000009092049093161515928201929092528151158061047e575080515b6104ba5760405162461bcd60e51b815260206004820152600d60248201526c464f5247455f50454e44494e4760981b60448201526064016102a4565b816020015115806104cc575080602001515b6105085760405162461bcd60e51b815260206004820152600d60248201526c41544c41535f50454e44494e4760981b60448201526064016102a4565b8160400151158061051a575080604001515b6105575760405162461bcd60e51b815260206004820152600e60248201526d4c45444745525f50454e44494e4760901b60448201526064016102a4565b81606001511580610569575080606001515b6105a55760405162461bcd60e51b815260206004820152600d60248201526c41454749535f50454e44494e4760981b60448201526064016102a4565b60008481526003602052604090819020805464ff0000000019166401000000001790555184907f21a1452eda43493b38a0ea3dad425f75946c349ddbf67781e8bfd351edab82d8906105fa9086815260200190565b60405180910390a250505050565b6000546001600160a01b031633146106325760405162461bcd60e51b81526004016102a490610aba565b600154600160a01b900460ff161561065c5760405162461bcd60e51b81526004016102a490610adf565b60008581526004602052604090205460ff166106a55760405162461bcd60e51b81526020600482015260086024820152672727aa2fa7a822a760c11b60448201526064016102a4565b600084846040516106b7929190610aff565b604051809103902090507f77767363ea794e1f1e9d0ebf67829596c5727d1b2aaffa7d888f58bfc8506a018103610706576000868152600360205260409020805460ff1916600117905561081c565b7f3c2f3117cb7ce8fb13f9b40ae62eb87f02e1c4810729d073fc8f6520ebf84a25810361074d576000868152600360205260409020805461ff00191661010017905561081c565b7ff3ae7573711d64e057ed7c9fc7ad2f1a51d91ed07c4cc2b5bcea3682b0ac30b28103610796576000868152600360205260409020805462ff000019166201000017905561081c565b7fe1e6dfd9a7c1491f4110b6be4afaea795c5a59bfeb2de99b858c0d497a8fa3a181036107e1576000868152600360205260409020805463ff0000001916630100000017905561081c565b60405162461bcd60e51b815260206004820152601060248201526f554e4b4e4f574e5f43415445474f525960801b60448201526064016102a4565b857fff802fc7f81aac93aaaae45c3b0d356a4fc42f9dfda8c9e4d94230c7e0fd7dd0868686866040516108529493929190610b0f565b60405180910390a2505050505050565b6000546001600160a01b0316331461088c5760405162461bcd60e51b81526004016102a490610aba565b600154600160a01b900460ff16156108b65760405162461bcd60e51b81526004016102a490610adf565b60008381526004602052604090205460ff16156109045760405162461bcd60e51b815260206004820152600c60248201526b20a62922a0a22cafa7a822a760a11b60448201526064016102a4565b6000838152600460209081526040808320805460ff191660011790556002909152902081906109338282610b62565b50506000546040518381526001600160a01b039091169084907f502c9a1d2eeb4094ca76091c1189d1040d4f95c4a3aa05e88ba7aadd4ff681699060200160405180910390a3505050565b801515811461098c57600080fd5b50565b6000602082840312156109a157600080fd5b81356109ac8161097e565b9392505050565b6000602082840312156109c557600080fd5b5035919050565b600080604083850312156109df57600080fd5b50508035926020909101359150565b600080600080600060808688031215610a0657600080fd5b85359450602086013567ffffffffffffffff80821115610a2557600080fd5b818801915088601f830112610a3957600080fd5b813581811115610a4857600080fd5b896020828501011115610a5a57600080fd5b9699602092909201985095966040810135965060600135945092505050565b600080600083850360c0811215610a8f57600080fd5b84359350602085013592506080603f1982011215610aac57600080fd5b506040840190509250925092565b6020808252600b908201526a27a7262cafa4a9a9aaa2a960a91b604082015260600190565b60208082526006908201526514105554d15160d21b604082015260600190565b8183823760009101908152919050565b606081528360608201528385608083013760006080858301015260006080601f19601f870116830101905083602083015282604083015295945050505050565b60008135610b5c8161097e565b92915050565b8135610b6d8161097e565b815460ff19811691151560ff1691821783556020840135610b8d8161097e565b61ff0090151560081b1661ffff1982168317811784556040850135610bb18161097e565b62ff000081151560101b168462ffffff19851617831717855550505050610bfb610bdd60608401610b4f565b82805463ff000000191691151560181b63ff00000016919091179055565b505056fea26469706673582212204378b7e2bdb64e9dc88cdebb7797868febe9269288c6a043419ad308d7f9bafd64736f6c63430008180033","opcodes":"PUSH1 0x80 PUSH1 0x40 MSTORE CALLVALUE DUP1 ISZERO PUSH2 0x10 JUMPI PUSH1 0x0 DUP1 REVERT JUMPDEST POP PUSH1 0x40 MLOAD PUSH2 0xCF3 CODESIZE SUB DUP1 PUSH2 0xCF3 DUP4 CODECOPY DUP2 ADD PUSH1 0x40 DUP2 SWAP1 MSTORE PUSH2 0x2F SWAP2 PUSH2 0x7C JUMP JUMPDEST PUSH1 0x0 DUP1 SLOAD PUSH1 0x1 PUSH1 0x1 PUSH1 0xA0 SHL SUB SWAP4 DUP5 AND PUSH1 0x1 PUSH1 0x1 PUSH1 0xA0 SHL SUB NOT SWAP2 DUP3 AND OR SWAP1 SWAP2 SSTORE PUSH1 0x1 DUP1 SLOAD SWAP3 SWAP1 SWAP4 AND SWAP2 AND OR SWAP1 SSTORE PUSH2 0xAF JUMP JUMPDEST DUP1 MLOAD PUSH1 0x1 PUSH1 0x1 PUSH1 0xA0 SHL SUB DUP2 AND DUP2 EQ PUSH2 0x77 JUMPI PUSH1 0x0 DUP1 REVERT JUMPDEST SWAP2 SWAP1 POP JUMP JUMPDEST PUSH1 0x0 DUP1 PUSH1 0x40 DUP4 DUP6 SUB SLT ISZERO PUSH2 0x8F JUMPI PUSH1 0x0 DUP1 REVERT JUMPDEST PUSH2 0x98 DUP4 PUSH2 0x60 JUMP JUMPDEST SWAP2 POP PUSH2 0xA6 PUSH1 0x20 DUP5 ADD PUSH2 0x60 JUMP JUMPDEST SWAP1 POP SWAP3 POP SWAP3 SWAP1 POP JUMP JUMPDEST PUSH2 0xC35 DUP1 PUSH2 0xBE PUSH1 0x0 CODECOPY PUSH1 0x0 RETURN INVALID PUSH1 0x80 PUSH1 0x40 MSTORE CALLVALUE DUP1 ISZERO PUSH2 0x10 JUMPI PUSH1 0x0 DUP1 REVERT JUMPDEST POP PUSH1 0x4 CALLDATASIZE LT PUSH2 0x9E JUMPI PUSH1 0x0 CALLDATALOAD PUSH1 0xE0 SHR DUP1 PUSH4 0x9EFAFD95 GT PUSH2 0x66 JUMPI DUP1 PUSH4 0x9EFAFD95 EQ PUSH2 0x188 JUMPI DUP1 PUSH4 0xA10D1DCD EQ PUSH2 0x1AB JUMPI DUP1 PUSH4 0xB166B20E EQ PUSH2 0x1BE JUMPI DUP1 PUSH4 0xE4788A12 EQ PUSH2 0x1D1 JUMPI DUP1 PUSH4 0xF0DC3A23 EQ PUSH2 0x1E4 JUMPI PUSH1 0x0 DUP1 REVERT JUMPDEST DUP1 PUSH4 0x16C38B3C EQ PUSH2 0xA3 JUMPI DUP1 PUSH4 0x1D143848 EQ PUSH2 0xB8 JUMPI DUP1 PUSH4 0x524A2ED5 EQ PUSH2 0xE8 JUMPI DUP1 PUSH4 0x5C975ABB EQ PUSH2 0x151 JUMPI DUP1 PUSH4 0x83DE8001 EQ PUSH2 0x175 JUMPI JUMPDEST PUSH1 0x0 DUP1 REVERT JUMPDEST PUSH2 0xB6 PUSH2 0xB1 CALLDATASIZE PUSH1 0x4 PUSH2 0x98F JUMP JUMPDEST PUSH2 0x261 JUMP JUMPDEST STOP JUMPDEST PUSH1 0x0 SLOAD PUSH2 0xCB SWAP1 PUSH1 0x1 PUSH1 0x1 PUSH1 0xA0 SHL SUB AND DUP2 JUMP JUMPDEST PUSH1 0x40 MLOAD PUSH1 0x1 PUSH1 0x1 PUSH1 0xA0 SHL SUB SWAP1 SWAP2 AND DUP2 MSTORE PUSH1 0x20 ADD JUMPDEST PUSH1 0x40 MLOAD DUP1 SWAP2 SUB SWAP1 RETURN JUMPDEST PUSH2 0x127 PUSH2 0xF6 CALLDATASIZE PUSH1 0x4 PUSH2 0x9B3 JUMP JUMPDEST PUSH1 0x2 PUSH1 0x20 MSTORE PUSH1 0x0 SWAP1 DUP2 MSTORE PUSH1 0x40 SWAP1 KECCAK256 SLOAD PUSH1 0xFF DUP1 DUP3 AND SWAP2 PUSH2 0x100 DUP2 DIV DUP3 AND SWAP2 PUSH3 0x10000 DUP3 DIV DUP2 AND SWAP2 PUSH4 0x1000000 SWAP1 DIV AND DUP5 JUMP JUMPDEST PUSH1 0x40 DUP1 MLOAD SWAP5 ISZERO ISZERO DUP6 MSTORE SWAP3 ISZERO ISZERO PUSH1 0x20 DUP6 ADD MSTORE SWAP1 ISZERO ISZERO SWAP2 DUP4 ADD SWAP2 SWAP1 SWAP2 MSTORE ISZERO ISZERO PUSH1 0x60 DUP3 ADD MSTORE PUSH1 0x80 ADD PUSH2 0xDF JUMP JUMPDEST PUSH1 0x1 SLOAD PUSH2 0x165 SWAP1 PUSH1 0x1 PUSH1 0xA0 SHL SWAP1 DIV PUSH1 0xFF AND DUP2 JUMP JUMPDEST PUSH1 0x40 MLOAD SWAP1 ISZERO ISZERO DUP2 MSTORE PUSH1 0x20 ADD PUSH2 0xDF JUMP JUMPDEST PUSH2 0xB6 PUSH2 0x183 CALLDATASIZE PUSH1 0x4 PUSH2 0x9CC JUMP JUMPDEST PUSH2 0x2CB JUMP JUMPDEST PUSH2 0x165 PUSH2 0x196 CALLDATASIZE PUSH1 0x4 PUSH2 0x9B3 JUMP JUMPDEST PUSH1 0x4 PUSH1 0x20 MSTORE PUSH1 0x0 SWAP1 DUP2 MSTORE PUSH1 0x40 SWAP1 KECCAK256 SLOAD PUSH1 0xFF AND DUP2 JUMP JUMPDEST PUSH1 0x1 SLOAD PUSH2 0xCB SWAP1 PUSH1 0x1 PUSH1 0x1 PUSH1 0xA0 SHL SUB AND DUP2 JUMP JUMPDEST PUSH2 0xB6 PUSH2 0x1CC CALLDATASIZE PUSH1 0x4 PUSH2 0x9EE JUMP JUMPDEST PUSH2 0x608 JUMP JUMPDEST PUSH2 0xB6 PUSH2 0x1DF CALLDATASIZE PUSH1 0x4 PUSH2 0xA79 JUMP JUMPDEST PUSH2 0x862 JUMP JUMPDEST PUSH2 0x22F PUSH2 0x1F2 CALLDATASIZE PUSH1 0x4 PUSH2 0x9B3 JUMP JUMPDEST PUSH1 0x3 PUSH1 0x20 MSTORE PUSH1 0x0 SWAP1 DUP2 MSTORE PUSH1 0x40 SWAP1 KECCAK256 SLOAD PUSH1 0xFF DUP1 DUP3 AND SWAP2 PUSH2 0x100 DUP2 DIV DUP3 AND SWAP2 PUSH3 0x10000 DUP3 DIV DUP2 AND SWAP2 PUSH4 0x1000000 DUP2 DIV DUP3 AND SWAP2 PUSH5 0x100000000 SWAP1 SWAP2 DIV AND DUP6 JUMP JUMPDEST PUSH1 0x40 DUP1 MLOAD SWAP6 ISZERO ISZERO DUP7 MSTORE SWAP4 ISZERO ISZERO PUSH1 0x20 DUP7 ADD MSTORE SWAP2 ISZERO ISZERO SWAP3 DUP5 ADD SWAP3 SWAP1 SWAP3 MSTORE SWAP1 ISZERO ISZERO PUSH1 0x60 DUP4 ADD MSTORE ISZERO ISZERO PUSH1 0x80 DUP3 ADD MSTORE PUSH1 0xA0 ADD PUSH2 0xDF JUMP JUMPDEST PUSH1 0x1 SLOAD PUSH1 0x1 PUSH1 0x1 PUSH1 0xA0 SHL SUB AND CALLER EQ PUSH2 0x2AD JUMPI PUSH1 0x40 MLOAD PUSH3 0x461BCD PUSH1 0xE5 SHL DUP2 MSTORE PUSH1 0x20 PUSH1 0x4 DUP3 ADD MSTORE PUSH1 0xA PUSH1 0x24 DUP3 ADD MSTORE PUSH10 0x4F4E4C595F4145474953 PUSH1 0xB0 SHL PUSH1 0x44 DUP3 ADD MSTORE PUSH1 0x64 ADD JUMPDEST PUSH1 0x40 MLOAD DUP1 SWAP2 SUB SWAP1 REVERT JUMPDEST PUSH1 0x1 DUP1 SLOAD SWAP2 ISZERO ISZERO PUSH1 0x1 PUSH1 0xA0 SHL MUL PUSH1 0xFF PUSH1 0xA0 SHL NOT SWAP1 SWAP3 AND SWAP2 SWAP1 SWAP2 OR SWAP1 SSTORE JUMP JUMPDEST PUSH1 0x0 SLOAD PUSH1 0x1 PUSH1 0x1 PUSH1 0xA0 SHL SUB AND CALLER EQ PUSH2 0x2F5 JUMPI PUSH1 0x40 MLOAD PUSH3 0x461BCD PUSH1 0xE5 SHL DUP2 MSTORE PUSH1 0x4 ADD PUSH2 0x2A4 SWAP1 PUSH2 0xABA JUMP JUMPDEST PUSH1 0x1 SLOAD PUSH1 0x1 PUSH1 0xA0 SHL SWAP1 DIV PUSH1 0xFF AND ISZERO PUSH2 0x31F JUMPI PUSH1 0x40 MLOAD PUSH3 0x461BCD PUSH1 0xE5 SHL DUP2 MSTORE PUSH1 0x4 ADD PUSH2 0x2A4 SWAP1 PUSH2 0xADF JUMP JUMPDEST PUSH1 0x0 DUP3 DUP2 MSTORE PUSH1 0x4 PUSH1 0x20 MSTORE PUSH1 0x40 SWAP1 KECCAK256 SLOAD PUSH1 0xFF AND PUSH2 0x368 JUMPI PUSH1 0x40 MLOAD PUSH3 0x461BCD PUSH1 0xE5 SHL DUP2 MSTORE PUSH1 0x20 PUSH1 0x4 DUP3 ADD MSTORE PUSH1 0x8 PUSH1 0x24 DUP3 ADD MSTORE PUSH8 0x2727AA2FA7A822A7 PUSH1 0xC1 SHL PUSH1 0x44 DUP3 ADD MSTORE PUSH1 0x64 ADD PUSH2 0x2A4 JUMP JUMPDEST PUSH1 0x0 DUP3 DUP2 MSTORE PUSH1 0x3 PUSH1 0x20 MSTORE PUSH1 0x40 SWAP1 KECCAK256 SLOAD PUSH5 0x100000000 SWAP1 DIV PUSH1 0xFF AND ISZERO PUSH2 0x3C0 JUMPI PUSH1 0x40 MLOAD PUSH3 0x461BCD PUSH1 0xE5 SHL DUP2 MSTORE PUSH1 0x20 PUSH1 0x4 DUP3 ADD MSTORE PUSH1 0xE PUSH1 0x24 DUP3 ADD MSTORE PUSH14 0x1053149150511657D0D313D4D151 PUSH1 0x92 SHL PUSH1 0x44 DUP3 ADD MSTORE PUSH1 0x64 ADD PUSH2 0x2A4 JUMP JUMPDEST PUSH1 0x0 DUP3 DUP2 MSTORE PUSH1 0x2 PUSH1 0x20 SWAP1 DUP2 MSTORE PUSH1 0x40 DUP1 DUP4 KECCAK256 DUP2 MLOAD PUSH1 0x80 DUP1 DUP3 ADD DUP5 MSTORE SWAP2 SLOAD PUSH1 0xFF DUP1 DUP3 AND ISZERO ISZERO DUP4 MSTORE PUSH2 0x100 DUP1 DUP4 DIV DUP3 AND ISZERO ISZERO DUP5 DUP9 ADD MSTORE PUSH3 0x10000 DUP1 DUP5 DIV DUP4 AND ISZERO ISZERO DUP6 DUP9 ADD MSTORE PUSH4 0x1000000 SWAP4 DUP5 SWAP1 DIV DUP4 AND ISZERO ISZERO PUSH1 0x60 DUP1 DUP8 ADD SWAP2 SWAP1 SWAP2 MSTORE DUP12 DUP11 MSTORE PUSH1 0x3 DUP10 MSTORE SWAP9 DUP8 SWAP1 KECCAK256 DUP8 MLOAD PUSH1 0xA0 DUP2 ADD DUP10 MSTORE SWAP1 SLOAD DUP1 DUP6 AND ISZERO ISZERO DUP3 MSTORE SWAP3 DUP4 DIV DUP5 AND ISZERO ISZERO SWAP9 DUP2 ADD SWAP9 SWAP1 SWAP9 MSTORE DUP2 DIV DUP3 AND ISZERO ISZERO SWAP6 DUP8 ADD SWAP6 SWAP1 SWAP6 MSTORE SWAP1 DUP5 DIV DUP2 AND ISZERO ISZERO SWAP6 DUP6 ADD SWAP6 SWAP1 SWAP6 MSTORE PUSH5 0x100000000 SWAP1 SWAP3 DIV SWAP1 SWAP4 AND ISZERO ISZERO SWAP3 DUP3 ADD SWAP3 SWAP1 SWAP3 MSTORE DUP2 MLOAD ISZERO DUP1 PUSH2 0x47E JUMPI POP DUP1 MLOAD JUMPDEST PUSH2 0x4BA JUMPI PUSH1 0x40 MLOAD PUSH3 0x461BCD PUSH1 0xE5 SHL DUP2 MSTORE PUSH1 0x20 PUSH1 0x4 DUP3 ADD MSTORE PUSH1 0xD PUSH1 0x24 DUP3 ADD MSTORE PUSH13 0x464F5247455F50454E44494E47 PUSH1 0x98 SHL PUSH1 0x44 DUP3 ADD MSTORE PUSH1 0x64 ADD PUSH2 0x2A4 JUMP JUMPDEST DUP2 PUSH1 0x20 ADD MLOAD ISZERO DUP1 PUSH2 0x4CC JUMPI POP DUP1 PUSH1 0x20 ADD MLOAD JUMPDEST PUSH2 0x508 JUMPI PUSH1 0x40 MLOAD PUSH3 0x461BCD PUSH1 0xE5 SHL DUP2 MSTORE PUSH1 0x20 PUSH1 0x4 DUP3 ADD MSTORE PUSH1 0xD PUSH1 0x24 DUP3 ADD MSTORE PUSH13 0x41544C41535F50454E44494E47 PUSH1 0x98 SHL PUSH1 0x44 DUP3 ADD MSTORE PUSH1 0x64 ADD PUSH2 0x2A4 JUMP JUMPDEST DUP2 PUSH1 0x40 ADD MLOAD ISZERO DUP1 PUSH2 0x51A JUMPI POP DUP1 PUSH1 0x40 ADD MLOAD JUMPDEST PUSH2 0x557 JUMPI PUSH1 0x40 MLOAD PUSH3 0x461BCD PUSH1 0xE5 SHL DUP2 MSTORE PUSH1 0x20 PUSH1 0x4 DUP3 ADD MSTORE PUSH1 0xE PUSH1 0x24 DUP3 ADD MSTORE PUSH14 0x4C45444745525F50454E44494E47 PUSH1 0x90 SHL PUSH1 0x44 DUP3 ADD MSTORE PUSH1 0x64 ADD PUSH2 0x2A4 JUMP JUMPDEST DUP2 PUSH1 0x60 ADD MLOAD ISZERO DUP1 PUSH2 0x569 JUMPI POP DUP1 PUSH1 0x60 ADD MLOAD JUMPDEST PUSH2 0x5A5 JUMPI PUSH1 0x40 MLOAD PUSH3 0x461BCD PUSH1 0xE5 SHL DUP2 MSTORE PUSH1 0x20 PUSH1 0x4 DUP3 ADD MSTORE PUSH1 0xD PUSH1 0x24 DUP3 ADD MSTORE PUSH13 0x41454749535F50454E44494E47 PUSH1 0x98 SHL PUSH1 0x44 DUP3 ADD MSTORE PUSH1 0x64 ADD PUSH2 0x2A4 JUMP JUMPDEST PUSH1 0x0 DUP5 DUP2 MSTORE PUSH1 0x3 PUSH1 0x20 MSTORE PUSH1 0x40 SWAP1 DUP2 SWAP1 KECCAK256 DUP1 SLOAD PUSH5 0xFF00000000 NOT AND PUSH5 0x100000000 OR SWAP1 SSTORE MLOAD DUP5 SWAP1 PUSH32 0x21A1452EDA43493B38A0EA3DAD425F75946C349DDBF67781E8BFD351EDAB82D8 SWAP1 PUSH2 0x5FA SWAP1 DUP7 DUP2 MSTORE PUSH1 0x20 ADD SWAP1 JUMP JUMPDEST PUSH1 0x40 MLOAD DUP1 SWAP2 SUB SWAP1 LOG2 POP POP POP POP JUMP JUMPDEST PUSH1 0x0 SLOAD PUSH1 0x1 PUSH1 0x1 PUSH1 0xA0 SHL SUB AND CALLER EQ PUSH2 0x632 JUMPI PUSH1 0x40 MLOAD PUSH3 0x461BCD PUSH1 0xE5 SHL DUP2 MSTORE PUSH1 0x4 ADD PUSH2 0x2A4 SWAP1 PUSH2 0xABA JUMP JUMPDEST PUSH1 0x1 SLOAD PUSH1 0x1 PUSH1 0xA0 SHL SWAP1 DIV PUSH1 0xFF AND ISZERO PUSH2 0x65C JUMPI PUSH1 0x40 MLOAD PUSH3 0x461BCD PUSH1 0xE5 SHL DUP2 MSTORE PUSH1 0x4 ADD PUSH2 0x2A4 SWAP1 PUSH2 0xADF JUMP JUMPDEST PUSH1 0x0 DUP6 DUP2 MSTORE PUSH1 0x4 PUSH1 0x20 MSTORE PUSH1 0x40 SWAP1 KECCAK256 SLOAD PUSH1 0xFF AND PUSH2 0x6A5 JUMPI PUSH1 0x40 MLOAD PUSH3 0x461BCD PUSH1 0xE5 SHL DUP2 MSTORE PUSH1 0x20 PUSH1 0x4 DUP3 ADD MSTORE PUSH1 0x8 PUSH1 0x24 DUP3 ADD MSTORE PUSH8 0x2727AA2FA7A822A7 PUSH1 0xC1 SHL PUSH1 0x44 DUP3 ADD MSTORE PUSH1 0x64 ADD PUSH2 0x2A4 JUMP JUMPDEST PUSH1 0x0 DUP5 DUP5 PUSH1 0x40 MLOAD PUSH2 0x6B7 SWAP3 SWAP2 SWAP1 PUSH2 0xAFF JUMP JUMPDEST PUSH1 0x40 MLOAD DUP1 SWAP2 SUB SWAP1 KECCAK256 SWAP1 POP PUSH32 0x77767363EA794E1F1E9D0EBF67829596C5727D1B2AAFFA7D888F58BFC8506A01 DUP2 SUB PUSH2 0x706 JUMPI PUSH1 0x0 DUP7 DUP2 MSTORE PUSH1 0x3 PUSH1 0x20 MSTORE PUSH1 0x40 SWAP1 KECCAK256 DUP1 SLOAD PUSH1 0xFF NOT AND PUSH1 0x1 OR SWAP1 SSTORE PUSH2 0x81C JUMP JUMPDEST PUSH32 0x3C2F3117CB7CE8FB13F9B40AE62EB87F02E1C4810729D073FC8F6520EBF84A25 DUP2 SUB PUSH2 0x74D JUMPI PUSH1 0x0 DUP7 DUP2 MSTORE PUSH1 0x3 PUSH1 0x20 MSTORE PUSH1 0x40 SWAP1 KECCAK256 DUP1 SLOAD PUSH2 0xFF00 NOT AND PUSH2 0x100 OR SWAP1 SSTORE PUSH2 0x81C JUMP JUMPDEST PUSH32 0xF3AE7573711D64E057ED7C9FC7AD2F1A51D91ED07C4CC2B5BCEA3682B0AC30B2 DUP2 SUB PUSH2 0x796 JUMPI PUSH1 0x0 DUP7 DUP2 MSTORE PUSH1 0x3 PUSH1 0x20 MSTORE PUSH1 0x40 SWAP1 KECCAK256 DUP1 SLOAD PUSH3 0xFF0000 NOT AND PUSH3 0x10000 OR SWAP1 SSTORE PUSH2 0x81C JUMP JUMPDEST PUSH32 0xE1E6DFD9A7C1491F4110B6BE4AFAEA795C5A59BFEB2DE99B858C0D497A8FA3A1 DUP2 SUB PUSH2 0x7E1 JUMPI PUSH1 0x0 DUP7 DUP2 MSTORE PUSH1 0x3 PUSH1 0x20 MSTORE PUSH1 0x40 SWAP1 KECCAK256 DUP1 SLOAD PUSH4 0xFF000000 NOT AND PUSH4 0x1000000 OR SWAP1 SSTORE PUSH2 0x81C JUMP JUMPDEST PUSH1 0x40 MLOAD PUSH3 0x461BCD PUSH1 0xE5 SHL DUP2 MSTORE PUSH1 0x20 PUSH1 0x4 DUP3 ADD MSTORE PUSH1 0x10 PUSH1 0x24 DUP3 ADD MSTORE PUSH16 0x554E4B4E4F574E5F43415445474F5259 PUSH1 0x80 SHL PUSH1 0x44 DUP3 ADD MSTORE PUSH1 0x64 ADD PUSH2 0x2A4 JUMP JUMPDEST DUP6 PUSH32 0xFF802FC7F81AAC93AAAAE45C3B0D356A4FC42F9DFDA8C9E4D94230C7E0FD7DD0 DUP7 DUP7 DUP7 DUP7 PUSH1 0x40 MLOAD PUSH2 0x852 SWAP5 SWAP4 SWAP3 SWAP2 SWAP1 PUSH2 0xB0F JUMP JUMPDEST PUSH1 0x40 MLOAD DUP1 SWAP2 SUB SWAP1 LOG2 POP POP POP POP POP POP JUMP JUMPDEST PUSH1 0x0 SLOAD PUSH1 0x1 PUSH1 0x1 PUSH1 0xA0 SHL SUB AND CALLER EQ PUSH2 0x88C JUMPI PUSH1 0x40 MLOAD PUSH3 0x461BCD PUSH1 0xE5 SHL DUP2 MSTORE PUSH1 0x4 ADD PUSH2 0x2A4 SWAP1 PUSH2 0xABA JUMP JUMPDEST PUSH1 0x1 SLOAD PUSH1 0x1 PUSH1 0xA0 SHL SWAP1 DIV PUSH1 0xFF AND ISZERO PUSH2 0x8B6 JUMPI PUSH1 0x40 MLOAD PUSH3 0x461BCD PUSH1 0xE5 SHL DUP2 MSTORE PUSH1 0x4 ADD PUSH2 0x2A4 SWAP1 PUSH2 0xADF JUMP JUMPDEST PUSH1 0x0 DUP4 DUP2 MSTORE PUSH1 0x4 PUSH1 0x20 MSTORE PUSH1 0x40 SWAP1 KECCAK256 SLOAD PUSH1 0xFF AND ISZERO PUSH2 0x904 JUMPI PUSH1 0x40 MLOAD PUSH3 0x461BCD PUSH1 0xE5 SHL DUP2 MSTORE PUSH1 0x20 PUSH1 0x4 DUP3 ADD MSTORE PUSH1 0xC PUSH1 0x24 DUP3 ADD MSTORE PUSH12 0x20A62922A0A22CAFA7A822A7 PUSH1 0xA1 SHL PUSH1 0x44 DUP3 ADD MSTORE PUSH1 0x64 ADD PUSH2 0x2A4 JUMP JUMPDEST PUSH1 0x0 DUP4 DUP2 MSTORE PUSH1 0x4 PUSH1 0x20 SWAP1 DUP2 MSTORE PUSH1 0x40 DUP1 DUP4 KECCAK256 DUP1 SLOAD PUSH1 0xFF NOT AND PUSH1 0x1 OR SWAP1 SSTORE PUSH1 0x2 SWAP1 SWAP2 MSTORE SWAP1 KECCAK256 DUP2 SWAP1 PUSH2 0x933 DUP3 DUP3 PUSH2 0xB62 JUMP JUMPDEST POP POP PUSH1 0x0 SLOAD PUSH1 0x40 MLOAD DUP4 DUP2 MSTORE PUSH1 0x1 PUSH1 0x1 PUSH1 0xA0 SHL SUB SWAP1 SWAP2 AND SWAP1 DUP5 SWAP1 PUSH32 0x502C9A1D2EEB4094CA76091C1189D1040D4F95C4A3AA05E88BA7AADD4FF68169 SWAP1 PUSH1 0x20 ADD PUSH1 0x40 MLOAD DUP1 SWAP2 SUB SWAP1 LOG3 POP POP POP JUMP JUMPDEST DUP1 ISZERO ISZERO DUP2 EQ PUSH2 0x98C JUMPI PUSH1 0x0 DUP1 REVERT JUMPDEST POP JUMP JUMPDEST PUSH1 0x0 PUSH1 0x20 DUP3 DUP5 SUB SLT ISZERO PUSH2 0x9A1 JUMPI PUSH1 0x0 DUP1 REVERT JUMPDEST DUP2 CALLDATALOAD PUSH2 0x9AC DUP2 PUSH2 0x97E JUMP JUMPDEST SWAP4 SWAP3 POP POP POP JUMP JUMPDEST PUSH1 0x0 PUSH1 0x20 DUP3 DUP5 SUB SLT ISZERO PUSH2 0x9C5 JUMPI PUSH1 0x0 DUP1 REVERT JUMPDEST POP CALLDATALOAD SWAP2 SWAP1 POP JUMP JUMPDEST PUSH1 0x0 DUP1 PUSH1 0x40 DUP4 DUP6 SUB SLT ISZERO PUSH2 0x9DF JUMPI PUSH1 0x0 DUP1 REVERT JUMPDEST POP POP DUP1 CALLDATALOAD SWAP3 PUSH1 0x20 SWAP1 SWAP2 ADD CALLDATALOAD SWAP2 POP JUMP JUMPDEST PUSH1 0x0 DUP1 PUSH1 0x0 DUP1 PUSH1 0x0 PUSH1 0x80 DUP7 DUP9 SUB SLT ISZERO PUSH2 0xA06 JUMPI PUSH1 0x0 DUP1 REVERT JUMPDEST DUP6 CALLDATALOAD SWAP5 POP PUSH1 0x20 DUP7 ADD CALLDATALOAD PUSH8 0xFFFFFFFFFFFFFFFF DUP1 DUP3 GT ISZERO PUSH2 0xA25 JUMPI PUSH1 0x0 DUP1 REVERT JUMPDEST DUP2 DUP9 ADD SWAP2 POP DUP9 PUSH1 0x1F DUP4 ADD SLT PUSH2 0xA39 JUMPI PUSH1 0x0 DUP1 REVERT JUMPDEST DUP2 CALLDATALOAD DUP2 DUP2 GT ISZERO PUSH2 0xA48 JUMPI PUSH1 0x0 DUP1 REVERT JUMPDEST DUP10 PUSH1 0x20 DUP3 DUP6 ADD ADD GT ISZERO PUSH2 0xA5A JUMPI PUSH1 0x0 DUP1 REVERT JUMPDEST SWAP7 SWAP10 PUSH1 0x20 SWAP3 SWAP1 SWAP3 ADD SWAP9 POP SWAP6 SWAP7 PUSH1 0x40 DUP2 ADD CALLDATALOAD SWAP7 POP PUSH1 0x60 ADD CALLDATALOAD SWAP5 POP SWAP3 POP POP POP JUMP JUMPDEST PUSH1 0x0 DUP1 PUSH1 0x0 DUP4 DUP6 SUB PUSH1 0xC0 DUP2 SLT ISZERO PUSH2 0xA8F JUMPI PUSH1 0x0 DUP1 REVERT JUMPDEST DUP5 CALLDATALOAD SWAP4 POP PUSH1 0x20 DUP6 ADD CALLDATALOAD SWAP3 POP PUSH1 0x80 PUSH1 0x3F NOT DUP3 ADD SLT ISZERO PUSH2 0xAAC JUMPI PUSH1 0x0 DUP1 REVERT JUMPDEST POP PUSH1 0x40 DUP5 ADD SWAP1 POP SWAP3 POP SWAP3 POP SWAP3 JUMP JUMPDEST PUSH1 0x20 DUP1 DUP3 MSTORE PUSH1 0xB SWAP1 DUP3 ADD MSTORE PUSH11 0x27A7262CAFA4A9A9AAA2A9 PUSH1 0xA9 SHL PUSH1 0x40 DUP3 ADD MSTORE PUSH1 0x60 ADD SWAP1 JUMP JUMPDEST PUSH1 0x20 DUP1 DUP3 MSTORE PUSH1 0x6 SWAP1 DUP3 ADD MSTORE PUSH6 0x14105554D151 PUSH1 0xD2 SHL PUSH1 0x40 DUP3 ADD MSTORE PUSH1 0x60 ADD SWAP1 JUMP JUMPDEST DUP2 DUP4 DUP3 CALLDATACOPY PUSH1 0x0 SWAP2 ADD SWAP1 DUP2 MSTORE SWAP2 SWAP1 POP JUMP JUMPDEST PUSH1 0x60 DUP2 MSTORE DUP4 PUSH1 0x60 DUP3 ADD MSTORE DUP4 DUP6 PUSH1 0x80 DUP4 ADD CALLDATACOPY PUSH1 0x0 PUSH1 0x80 DUP6 DUP4 ADD ADD MSTORE PUSH1 0x0 PUSH1 0x80 PUSH1 0x1F NOT PUSH1 0x1F DUP8 ADD AND DUP4 ADD ADD SWAP1 POP DUP4 PUSH1 0x20 DUP4 ADD MSTORE DUP3 PUSH1 0x40 DUP4 ADD MSTORE SWAP6 SWAP5 POP POP POP POP POP JUMP JUMPDEST PUSH1 0x0 DUP2 CALLDATALOAD PUSH2 0xB5C DUP2 PUSH2 0x97E JUMP JUMPDEST SWAP3 SWAP2 POP POP JUMP JUMPDEST DUP2 CALLDATALOAD PUSH2 0xB6D DUP2 PUSH2 0x97E JUMP JUMPDEST DUP2 SLOAD PUSH1 0xFF NOT DUP2 AND SWAP2 ISZERO ISZERO PUSH1 0xFF AND SWAP2 DUP3 OR DUP4 SSTORE PUSH1 0x20 DUP5 ADD CALLDATALOAD PUSH2 0xB8D DUP2 PUSH2 0x97E JUMP JUMPDEST PUSH2 0xFF00 SWAP1 ISZERO ISZERO PUSH1 0x8 SHL AND PUSH2 0xFFFF NOT DUP3 AND DUP4 OR DUP2 OR DUP5 SSTORE PUSH1 0x40 DUP6 ADD CALLDATALOAD PUSH2 0xBB1 DUP2 PUSH2 0x97E JUMP JUMPDEST PUSH3 0xFF0000 DUP2 ISZERO ISZERO PUSH1 0x10 SHL AND DUP5 PUSH3 0xFFFFFF NOT DUP6 AND OR DUP4 OR OR DUP6 SSTORE POP POP POP POP PUSH2 0xBFB PUSH2 0xBDD PUSH1 0x60 DUP5 ADD PUSH2 0xB4F JUMP JUMPDEST DUP3 DUP1 SLOAD PUSH4 0xFF000000 NOT AND SWAP2 ISZERO ISZERO PUSH1 0x18 SHL PUSH4 0xFF000000 AND SWAP2 SWAP1 SWAP2 OR SWAP1 SSTORE JUMP JUMPDEST POP POP JUMP INVALID LOG2 PUSH5 0x6970667358 0x22 SLT KECCAK256 NUMBER PUSH25 0xB7E2BDB64E9DC88CDEBB7797868FEBE9269288C6A043419AD3 ADDMOD 0xD7 0xF9 0xBA REVERT PUSH5 0x736F6C6343 STOP ADDMOD XOR STOP CALLER "},"methodIdentifiers":{"aegis()":"a10d1dcd","closeContract(bytes32,bytes32)":"83de8001","completeStep(bytes32,string,uint256,bytes32)":"b166b20e","completedSteps(bytes32)":"f0dc3a23","issuer()":"1d143848","openContract(bytes32,bytes32,(bool,bool,bool,bool))":"e4788a12","opened(bytes32)":"9efafd95","paused()":"5c975abb","requiredSteps(bytes32)":"524a2ed5","setPaused(bool)":"16c38b3c"}}}}}