{
  "_format": "hh-sol-artifact-1",
  "contractName": "SupplyChainChain",
  "sourceName": "contracts/SupplyChainChain.sol",
  "abi": [
    {
      "inputs": [
        {
          "internalType": "address",
          "name": "_issuer",
          "type": "address"
        },
        {
          "internalType": "address",
          "name": "_aegis",
          "type": "address"
        }
      ],
      "stateMutability": "nonpayable",
      "type": "constructor"
    },
    {
      "anonymous": false,
      "inputs": [
        {
          "indexed": true,
          "internalType": "bytes32",
          "name": "contractId",
          "type": "bytes32"
        },
        {
          "indexed": false,
          "internalType": "bytes32",
          "name": "finalHash",
          "type": "bytes32"
        }
      ],
      "name": "ContractClosed",
      "type": "event"
    },
    {
      "anonymous": false,
      "inputs": [
        {
          "indexed": true,
          "internalType": "bytes32",
          "name": "contractId",
          "type": "bytes32"
        },
        {
          "indexed": true,
          "internalType": "address",
          "name": "issuer",
          "type": "address"
        },
        {
          "indexed": false,
          "internalType": "bytes32",
          "name": "metadataHash",
          "type": "bytes32"
        }
      ],
      "name": "ContractOpened",
      "type": "event"
    },
    {
      "anonymous": false,
      "inputs": [
        {
          "indexed": true,
          "internalType": "bytes32",
          "name": "contractId",
          "type": "bytes32"
        },
        {
          "indexed": false,
          "internalType": "string",
          "name": "category",
          "type": "string"
        },
        {
          "indexed": false,
          "internalType": "uint256",
          "name": "tokenId",
          "type": "uint256"
        },
        {
          "indexed": false,
          "internalType": "bytes32",
          "name": "payloadHash",
          "type": "bytes32"
        }
      ],
      "name": "StepCompleted",
      "type": "event"
    },
    {
      "inputs": [],
      "name": "aegis",
      "outputs": [
        {
          "internalType": "address",
          "name": "",
          "type": "address"
        }
      ],
      "stateMutability": "view",
      "type": "function"
    },
    {
      "inputs": [
        {
          "internalType": "bytes32",
          "name": "contractId",
          "type": "bytes32"
        },
        {
          "internalType": "bytes32",
          "name": "finalHash",
          "type": "bytes32"
        }
      ],
      "name": "closeContract",
      "outputs": [],
      "stateMutability": "nonpayable",
      "type": "function"
    },
    {
      "inputs": [
        {
          "internalType": "bytes32",
          "name": "contractId",
          "type": "bytes32"
        },
        {
          "internalType": "string",
          "name": "category",
          "type": "string"
        },
        {
          "internalType": "uint256",
          "name": "tokenId",
          "type": "uint256"
        },
        {
          "internalType": "bytes32",
          "name": "payloadHash",
          "type": "bytes32"
        }
      ],
      "name": "completeStep",
      "outputs": [],
      "stateMutability": "nonpayable",
      "type": "function"
    },
    {
      "inputs": [
        {
          "internalType": "bytes32",
          "name": "",
          "type": "bytes32"
        }
      ],
      "name": "completedSteps",
      "outputs": [
        {
          "internalType": "bool",
          "name": "forge",
          "type": "bool"
        },
        {
          "internalType": "bool",
          "name": "atlas",
          "type": "bool"
        },
        {
          "internalType": "bool",
          "name": "ledger",
          "type": "bool"
        },
        {
          "internalType": "bool",
          "name": "aegis",
          "type": "bool"
        },
        {
          "internalType": "bool",
          "name": "closed",
          "type": "bool"
        }
      ],
      "stateMutability": "view",
      "type": "function"
    },
    {
      "inputs": [],
      "name": "issuer",
      "outputs": [
        {
          "internalType": "address",
          "name": "",
          "type": "address"
        }
      ],
      "stateMutability": "view",
      "type": "function"
    },
    {
      "inputs": [
        {
          "internalType": "bytes32",
          "name": "contractId",
          "type": "bytes32"
        },
        {
          "internalType": "bytes32",
          "name": "metadataHash",
          "type": "bytes32"
        },
        {
          "components": [
            {
              "internalType": "bool",
              "name": "forge",
              "type": "bool"
            },
            {
              "internalType": "bool",
              "name": "atlas",
              "type": "bool"
            },
            {
              "internalType": "bool",
              "name": "ledger",
              "type": "bool"
            },
            {
              "internalType": "bool",
              "name": "aegis",
              "type": "bool"
            }
          ],
          "internalType": "struct SupplyChainChain.ChainReq",
          "name": "req",
          "type": "tuple"
        }
      ],
      "name": "openContract",
      "outputs": [],
      "stateMutability": "nonpayable",
      "type": "function"
    },
    {
      "inputs": [
        {
          "internalType": "bytes32",
          "name": "",
          "type": "bytes32"
        }
      ],
      "name": "opened",
      "outputs": [
        {
          "internalType": "bool",
          "name": "",
          "type": "bool"
        }
      ],
      "stateMutability": "view",
      "type": "function"
    },
    {
      "inputs": [],
      "name": "paused",
      "outputs": [
        {
          "internalType": "bool",
          "name": "",
          "type": "bool"
        }
      ],
      "stateMutability": "view",
      "type": "function"
    },
    {
      "inputs": [
        {
          "internalType": "bytes32",
          "name": "",
          "type": "bytes32"
        }
      ],
      "name": "requiredSteps",
      "outputs": [
        {
          "internalType": "bool",
          "name": "forge",
          "type": "bool"
        },
        {
          "internalType": "bool",
          "name": "atlas",
          "type": "bool"
        },
        {
          "internalType": "bool",
          "name": "ledger",
          "type": "bool"
        },
        {
          "internalType": "bool",
          "name": "aegis",
          "type": "bool"
        }
      ],
      "stateMutability": "view",
      "type": "function"
    },
    {
      "inputs": [
        {
          "internalType": "bool",
          "name": "on",
          "type": "bool"
        }
      ],
      "name": "setPaused",
      "outputs": [],
      "stateMutability": "nonpayable",
      "type": "function"
    }
  ],
  "bytecode": "0x608060405234801561001057600080fd5b50604051610cf3380380610cf383398101604081905261002f9161007c565b600080546001600160a01b039384166001600160a01b031991821617909155600180549290931691161790556100af565b80516001600160a01b038116811461007757600080fd5b919050565b6000806040838503121561008f57600080fd5b61009883610060565b91506100a660208401610060565b90509250929050565b610c35806100be6000396000f3fe608060405234801561001057600080fd5b506004361061009e5760003560e01c80639efafd95116100665780639efafd9514610188578063a10d1dcd146101ab578063b166b20e146101be578063e4788a12146101d1578063f0dc3a23146101e457600080fd5b806316c38b3c146100a35780631d143848146100b8578063524a2ed5146100e85780635c975abb1461015157806383de800114610175575b600080fd5b6100b66100b136600461098f565b610261565b005b6000546100cb906001600160a01b031681565b6040516001600160a01b0390911681526020015b60405180910390f35b6101276100f63660046109b3565b60026020526000908152604090205460ff808216916101008104821691620100008204811691630100000090041684565b604080519415158552921515602085015290151591830191909152151560608201526080016100df565b60015461016590600160a01b900460ff1681565b60405190151581526020016100df565b6100b66101833660046109cc565b6102cb565b6101656101963660046109b3565b60046020526000908152604090205460ff1681565b6001546100cb906001600160a01b031681565b6100b66101cc3660046109ee565b610608565b6100b66101df366004610a79565b610862565b61022f6101f23660046109b3565b60036020526000908152604090205460ff808216916101008104821691620100008204811691630100000081048216916401000000009091041685565b60408051951515865293151560208601529115159284019290925290151560608301521515608082015260a0016100df565b6001546001600160a01b031633146102ad5760405162461bcd60e51b815260206004820152600a6024820152694f4e4c595f414547495360b01b60448201526064015b60405180910390fd5b60018054911515600160a01b0260ff60a01b19909216919091179055565b6000546001600160a01b031633146102f55760405162461bcd60e51b81526004016102a490610aba565b600154600160a01b900460ff161561031f5760405162461bcd60e51b81526004016102a490610adf565b60008281526004602052604090205460ff166103685760405162461bcd60e51b81526020600482015260086024820152672727aa2fa7a822a760c11b60448201526064016102a4565b600082815260036020526040902054640100000000900460ff16156103c05760405162461bcd60e51b815260206004820152600e60248201526d1053149150511657d0d313d4d15160921b60448201526064016102a4565b6000828152600260209081526040808320815160808082018452915460ff808216151583526101008083048216151584880152620100008084048316151585880152630100000093849004831615156060808701919091528b8a526003895298879020875160a08101895290548085161515825292830484161515988101989098528104821615159587019590955290840481161515958501959095526401000000009092049093161515928201929092528151158061047e575080515b6104ba5760405162461bcd60e51b815260206004820152600d60248201526c464f5247455f50454e44494e4760981b60448201526064016102a4565b816020015115806104cc575080602001515b6105085760405162461bcd60e51b815260206004820152600d60248201526c41544c41535f50454e44494e4760981b60448201526064016102a4565b8160400151158061051a575080604001515b6105575760405162461bcd60e51b815260206004820152600e60248201526d4c45444745525f50454e44494e4760901b60448201526064016102a4565b81606001511580610569575080606001515b6105a55760405162461bcd60e51b815260206004820152600d60248201526c41454749535f50454e44494e4760981b60448201526064016102a4565b60008481526003602052604090819020805464ff0000000019166401000000001790555184907f21a1452eda43493b38a0ea3dad425f75946c349ddbf67781e8bfd351edab82d8906105fa9086815260200190565b60405180910390a250505050565b6000546001600160a01b031633146106325760405162461bcd60e51b81526004016102a490610aba565b600154600160a01b900460ff161561065c5760405162461bcd60e51b81526004016102a490610adf565b60008581526004602052604090205460ff166106a55760405162461bcd60e51b81526020600482015260086024820152672727aa2fa7a822a760c11b60448201526064016102a4565b600084846040516106b7929190610aff565b604051809103902090507f77767363ea794e1f1e9d0ebf67829596c5727d1b2aaffa7d888f58bfc8506a018103610706576000868152600360205260409020805460ff1916600117905561081c565b7f3c2f3117cb7ce8fb13f9b40ae62eb87f02e1c4810729d073fc8f6520ebf84a25810361074d576000868152600360205260409020805461ff00191661010017905561081c565b7ff3ae7573711d64e057ed7c9fc7ad2f1a51d91ed07c4cc2b5bcea3682b0ac30b28103610796576000868152600360205260409020805462ff000019166201000017905561081c565b7fe1e6dfd9a7c1491f4110b6be4afaea795c5a59bfeb2de99b858c0d497a8fa3a181036107e1576000868152600360205260409020805463ff0000001916630100000017905561081c565b60405162461bcd60e51b815260206004820152601060248201526f554e4b4e4f574e5f43415445474f525960801b60448201526064016102a4565b857fff802fc7f81aac93aaaae45c3b0d356a4fc42f9dfda8c9e4d94230c7e0fd7dd0868686866040516108529493929190610b0f565b60405180910390a2505050505050565b6000546001600160a01b0316331461088c5760405162461bcd60e51b81526004016102a490610aba565b600154600160a01b900460ff16156108b65760405162461bcd60e51b81526004016102a490610adf565b60008381526004602052604090205460ff16156109045760405162461bcd60e51b815260206004820152600c60248201526b20a62922a0a22cafa7a822a760a11b60448201526064016102a4565b6000838152600460209081526040808320805460ff191660011790556002909152902081906109338282610b62565b50506000546040518381526001600160a01b039091169084907f502c9a1d2eeb4094ca76091c1189d1040d4f95c4a3aa05e88ba7aadd4ff681699060200160405180910390a3505050565b801515811461098c57600080fd5b50565b6000602082840312156109a157600080fd5b81356109ac8161097e565b9392505050565b6000602082840312156109c557600080fd5b5035919050565b600080604083850312156109df57600080fd5b50508035926020909101359150565b600080600080600060808688031215610a0657600080fd5b85359450602086013567ffffffffffffffff80821115610a2557600080fd5b818801915088601f830112610a3957600080fd5b813581811115610a4857600080fd5b896020828501011115610a5a57600080fd5b9699602092909201985095966040810135965060600135945092505050565b600080600083850360c0811215610a8f57600080fd5b84359350602085013592506080603f1982011215610aac57600080fd5b506040840190509250925092565b6020808252600b908201526a27a7262cafa4a9a9aaa2a960a91b604082015260600190565b60208082526006908201526514105554d15160d21b604082015260600190565b8183823760009101908152919050565b606081528360608201528385608083013760006080858301015260006080601f19601f870116830101905083602083015282604083015295945050505050565b60008135610b5c8161097e565b92915050565b8135610b6d8161097e565b815460ff19811691151560ff1691821783556020840135610b8d8161097e565b61ff0090151560081b1661ffff1982168317811784556040850135610bb18161097e565b62ff000081151560101b168462ffffff19851617831717855550505050610bfb610bdd60608401610b4f565b82805463ff000000191691151560181b63ff00000016919091179055565b505056fea26469706673582212204378b7e2bdb64e9dc88cdebb7797868febe9269288c6a043419ad308d7f9bafd64736f6c63430008180033",
  "linkReferences": {},
  "deployedLinkReferences": {}
}